{
  "contractName": "Dice",
  "abi": [
    {
      "inputs": [
        {
          "internalType": "address",
          "name": "_tokenAddress",
          "type": "address"
        },
        {
          "internalType": "address",
          "name": "_vaultAddress",
          "type": "address"
        }
      ],
      "stateMutability": "nonpayable",
      "type": "constructor"
    },
    {
      "anonymous": false,
      "inputs": [
        {
          "indexed": true,
          "internalType": "uint256",
          "name": "betId",
          "type": "uint256"
        },
        {
          "indexed": true,
          "internalType": "address",
          "name": "player",
          "type": "address"
        },
        {
          "indexed": false,
          "internalType": "uint256",
          "name": "amount",
          "type": "uint256"
        },
        {
          "indexed": true,
          "internalType": "uint256",
          "name": "rollUnder",
          "type": "uint256"
        },
        {
          "indexed": false,
          "internalType": "uint256",
          "name": "choice",
          "type": "uint256"
        }
      ],
      "name": "BetPlaced",
      "type": "event"
    },
    {
      "anonymous": false,
      "inputs": [
        {
          "indexed": true,
          "internalType": "uint256",
          "name": "betId",
          "type": "uint256"
        },
        {
          "indexed": true,
          "internalType": "address",
          "name": "player",
          "type": "address"
        },
        {
          "indexed": false,
          "internalType": "uint256",
          "name": "amount",
          "type": "uint256"
        }
      ],
      "name": "BetRefunded",
      "type": "event"
    },
    {
      "anonymous": false,
      "inputs": [
        {
          "indexed": true,
          "internalType": "uint256",
          "name": "betId",
          "type": "uint256"
        },
        {
          "indexed": true,
          "internalType": "address",
          "name": "player",
          "type": "address"
        },
        {
          "indexed": false,
          "internalType": "uint256",
          "name": "amount",
          "type": "uint256"
        },
        {
          "indexed": true,
          "internalType": "uint256",
          "name": "rollUnder",
          "type": "uint256"
        },
        {
          "indexed": false,
          "internalType": "uint256",
          "name": "choice",
          "type": "uint256"
        },
        {
          "indexed": false,
          "internalType": "uint256",
          "name": "outcome",
          "type": "uint256"
        },
        {
          "indexed": false,
          "internalType": "uint256",
          "name": "winAmount",
          "type": "uint256"
        }
      ],
      "name": "BetSettled",
      "type": "event"
    },
    {
      "anonymous": false,
      "inputs": [
        {
          "indexed": true,
          "internalType": "address",
          "name": "previousOwner",
          "type": "address"
        },
        {
          "indexed": true,
          "internalType": "address",
          "name": "newOwner",
          "type": "address"
        }
      ],
      "name": "OwnershipTransferred",
      "type": "event"
    },
    {
      "inputs": [],
      "name": "HOUSE_EDGE_PERCENT",
      "outputs": [
        {
          "internalType": "uint256",
          "name": "",
          "type": "uint256"
        }
      ],
      "stateMutability": "view",
      "type": "function",
      "constant": true
    },
    {
      "inputs": [],
      "name": "VRFCenterAddress",
      "outputs": [
        {
          "internalType": "address",
          "name": "",
          "type": "address"
        }
      ],
      "stateMutability": "view",
      "type": "function",
      "constant": true
    },
    {
      "inputs": [
        {
          "internalType": "uint256",
          "name": "",
          "type": "uint256"
        },
        {
          "internalType": "uint256",
          "name": "",
          "type": "uint256"
        }
      ],
      "name": "betMap",
      "outputs": [
        {
          "internalType": "uint256",
          "name": "",
          "type": "uint256"
        }
      ],
      "stateMutability": "view",
      "type": "function",
      "constant": true
    },
    {
      "inputs": [
        {
          "internalType": "uint256",
          "name": "",
          "type": "uint256"
        }
      ],
      "name": "bets",
      "outputs": [
        {
          "internalType": "uint8",
          "name": "rollUnder",
          "type": "uint8"
        },
        {
          "internalType": "uint40",
          "name": "choice",
          "type": "uint40"
        },
        {
          "internalType": "uint40",
          "name": "outcome",
          "type": "uint40"
        },
        {
          "internalType": "uint168",
          "name": "placeBlockNumber",
          "type": "uint168"
        },
        {
          "internalType": "uint128",
          "name": "amount",
          "type": "uint128"
        },
        {
          "internalType": "uint128",
          "name": "winAmount",
          "type": "uint128"
        },
        {
          "internalType": "address",
          "name": "player",
          "type": "address"
        },
        {
          "internalType": "bool",
          "name": "isSettled",
          "type": "bool"
        }
      ],
      "stateMutability": "view",
      "type": "function",
      "constant": true
    },
    {
      "inputs": [],
      "name": "gameIsLive",
      "outputs": [
        {
          "internalType": "bool",
          "name": "",
          "type": "bool"
        }
      ],
      "stateMutability": "view",
      "type": "function",
      "constant": true
    },
    {
      "inputs": [],
      "name": "maxBetAmount",
      "outputs": [
        {
          "internalType": "uint256",
          "name": "",
          "type": "uint256"
        }
      ],
      "stateMutability": "view",
      "type": "function",
      "constant": true
    },
    {
      "inputs": [],
      "name": "minBetAmount",
      "outputs": [
        {
          "internalType": "uint256",
          "name": "",
          "type": "uint256"
        }
      ],
      "stateMutability": "view",
      "type": "function",
      "constant": true
    },
    {
      "inputs": [],
      "name": "owner",
      "outputs": [
        {
          "internalType": "address",
          "name": "",
          "type": "address"
        }
      ],
      "stateMutability": "view",
      "type": "function",
      "constant": true
    },
    {
      "inputs": [],
      "name": "renounceOwnership",
      "outputs": [],
      "stateMutability": "nonpayable",
      "type": "function"
    },
    {
      "inputs": [],
      "name": "tokenAddress",
      "outputs": [
        {
          "internalType": "address",
          "name": "",
          "type": "address"
        }
      ],
      "stateMutability": "view",
      "type": "function",
      "constant": true
    },
    {
      "inputs": [
        {
          "internalType": "address",
          "name": "newOwner",
          "type": "address"
        }
      ],
      "name": "transferOwnership",
      "outputs": [],
      "stateMutability": "nonpayable",
      "type": "function"
    },
    {
      "inputs": [],
      "name": "vaultAddress",
      "outputs": [
        {
          "internalType": "address",
          "name": "",
          "type": "address"
        }
      ],
      "stateMutability": "view",
      "type": "function",
      "constant": true
    },
    {
      "inputs": [
        {
          "internalType": "address",
          "name": "_address",
          "type": "address"
        }
      ],
      "name": "initializeVRFCenter",
      "outputs": [],
      "stateMutability": "nonpayable",
      "type": "function"
    },
    {
      "inputs": [],
      "name": "toggleGameIsLive",
      "outputs": [],
      "stateMutability": "nonpayable",
      "type": "function"
    },
    {
      "inputs": [
        {
          "internalType": "uint256",
          "name": "_minBetAmount",
          "type": "uint256"
        }
      ],
      "name": "setMinBetAmount",
      "outputs": [],
      "stateMutability": "nonpayable",
      "type": "function"
    },
    {
      "inputs": [
        {
          "internalType": "uint256",
          "name": "_maxBetAmount",
          "type": "uint256"
        }
      ],
      "name": "setMaxBetAmount",
      "outputs": [],
      "stateMutability": "nonpayable",
      "type": "function"
    },
    {
      "inputs": [
        {
          "internalType": "uint256",
          "name": "_HOUSE_EDGE_PERCENT",
          "type": "uint256"
        }
      ],
      "name": "setHouseEdgePercent",
      "outputs": [],
      "stateMutability": "nonpayable",
      "type": "function"
    },
    {
      "inputs": [
        {
          "internalType": "uint256",
          "name": "betChoiceMask",
          "type": "uint256"
        },
        {
          "internalType": "uint256",
          "name": "amount",
          "type": "uint256"
        },
        {
          "internalType": "uint256",
          "name": "deadline",
          "type": "uint256"
        },
        {
          "internalType": "uint8",
          "name": "v",
          "type": "uint8"
        },
        {
          "internalType": "bytes32",
          "name": "r",
          "type": "bytes32"
        },
        {
          "internalType": "bytes32",
          "name": "s",
          "type": "bytes32"
        }
      ],
      "name": "placeBet",
      "outputs": [],
      "stateMutability": "nonpayable",
      "type": "function"
    },
    {
      "inputs": [
        {
          "internalType": "uint256",
          "name": "requestId",
          "type": "uint256"
        },
        {
          "internalType": "uint256[]",
          "name": "expandedValues",
          "type": "uint256[]"
        }
      ],
      "name": "settleBet",
      "outputs": [],
      "stateMutability": "nonpayable",
      "type": "function"
    }
  ],
  "bytecode": "0x60806040526001600560146101000a81548160ff021916908315150217905550670de0b6b3a7640000600655681b1ae4d6e2ef50000060075560dc6008553480156200004a57600080fd5b50604051620032513803806200325183398181016040528101906200007091906200031a565b6200009062000084620001e460201b60201c565b620001ec60201b60201c565b6001808190555081600260006101000a81548173ffffffffffffffffffffffffffffffffffffffff021916908373ffffffffffffffffffffffffffffffffffffffff16021790555081600360006101000a81548173ffffffffffffffffffffffffffffffffffffffff021916908373ffffffffffffffffffffffffffffffffffffffff16021790555081600b60006101000a81548173ffffffffffffffffffffffffffffffffffffffff021916908373ffffffffffffffffffffffffffffffffffffffff16021790555080600560006101000a81548173ffffffffffffffffffffffffffffffffffffffff021916908373ffffffffffffffffffffffffffffffffffffffff16021790555080600a60006101000a81548173ffffffffffffffffffffffffffffffffffffffff021916908373ffffffffffffffffffffffffffffffffffffffff160217905550505062000361565b600033905090565b60008060009054906101000a900473ffffffffffffffffffffffffffffffffffffffff169050816000806101000a81548173ffffffffffffffffffffffffffffffffffffffff021916908373ffffffffffffffffffffffffffffffffffffffff1602179055508173ffffffffffffffffffffffffffffffffffffffff168173ffffffffffffffffffffffffffffffffffffffff167f8be0079c531659141344cd1fd0a4f28419497f9722a3daafe3b4186f6b6457e060405160405180910390a35050565b600080fd5b600073ffffffffffffffffffffffffffffffffffffffff82169050919050565b6000620002e282620002b5565b9050919050565b620002f481620002d5565b81146200030057600080fd5b50565b6000815190506200031481620002e9565b92915050565b60008060408385031215620003345762000333620002b0565b5b6000620003448582860162000303565b9250506020620003578582860162000303565b9150509250929050565b612ee080620003716000396000f3fe608060405234801561001057600080fd5b50600436106101215760003560e01c8063b85a5b82116100ad578063cab11d5d11610071578063cab11d5d146102c3578063cf96ce03146102e1578063d414d0c2146102fd578063f2fde38b1461031b578063fa968eea1461033757610121565b8063b85a5b821461021f578063bb5a4f4c1461023d578063bc6acca314610259578063be1fb50614610275578063becf40b6146102a557610121565b80637cfbc7a5116100f45780637cfbc7a5146101a15780638cf1273a146101bd5780638da5cb5b146101d95780639d76ea58146101f7578063a045a6fc1461021557610121565b806322af00fa14610126578063430bf08a1461015d5780636c1885931461017b578063715018a614610197575b600080fd5b610140600480360381019061013b9190611b3a565b610355565b604051610154989796959493929190611c5a565b60405180910390f35b610165610462565b6040516101729190611cd8565b60405180910390f35b61019560048036038101906101909190611b3a565b610488565b005b61019f6104de565b005b6101bb60048036038101906101b69190611b3a565b6104f2565b005b6101d760048036038101906101d29190611e4c565b610548565b005b6101e16106b3565b6040516101ee9190611cd8565b60405180910390f35b6101ff6106dc565b60405161020c9190611cd8565b60405180910390f35b61021d610702565b005b610227610736565b6040516102349190611cd8565b60405180910390f35b61025760048036038101906102529190611f0a565b61075c565b005b610273600480360381019061026e9190611fc3565b610e60565b005b61028f600480360381019061028a9190611ff0565b610f43565b60405161029c919061203f565b60405180910390f35b6102ad610f74565b6040516102ba919061203f565b60405180910390f35b6102cb610f7a565b6040516102d8919061203f565b60405180910390f35b6102fb60048036038101906102f69190611b3a565b610f80565b005b610305610fe8565b604051610312919061205a565b60405180910390f35b61033560048036038101906103309190611fc3565b610ffb565b005b61033f61107e565b60405161034c919061203f565b60405180910390f35b600c818154811061036557600080fd5b90600052602060002090600302016000915090508060000160009054906101000a900460ff16908060000160019054906101000a900464ffffffffff16908060000160069054906101000a900464ffffffffff169080600001600b9054906101000a900474ffffffffffffffffffffffffffffffffffffffffff16908060010160009054906101000a90046fffffffffffffffffffffffffffffffff16908060010160109054906101000a90046fffffffffffffffffffffffffffffffff16908060020160009054906101000a900473ffffffffffffffffffffffffffffffffffffffff16908060020160149054906101000a900460ff16905088565b600a60009054906101000a900473ffffffffffffffffffffffffffffffffffffffff1681565b610490611084565b60075481106104d4576040517f08c379a00000000000000000000000000000000000000000000000000000000081526004016104cb906120f8565b60405180910390fd5b8060068190555050565b6104e6611084565b6104f06000611102565b565b6104fa611084565b600654811161053e576040517f08c379a00000000000000000000000000000000000000000000000000000000081526004016105359061218a565b60405180910390fd5b8060078190555050565b3373ffffffffffffffffffffffffffffffffffffffff16600960009054906101000a900473ffffffffffffffffffffffffffffffffffffffff1673ffffffffffffffffffffffffffffffffffffffff16146105d8576040517f08c379a00000000000000000000000000000000000000000000000000000000081526004016105cf906121f6565b60405180910390fd5b6000600d600084815260200190815260200160002080548060200260200160405190810160405280929190818152602001828054801561063757602002820191906000526020600020905b815481526020019060010190808311610623575b5050505050905060005b81518110156106ac57620138805a1161065b5750506106af565b61069982828151811061067157610670612216565b5b602002602001015184838151811061068c5761068b612216565b5b60200260200101516111c6565b80806106a490612274565b915050610641565b50505b5050565b60008060009054906101000a900473ffffffffffffffffffffffffffffffffffffffff16905090565b600b60009054906101000a900473ffffffffffffffffffffffffffffffffffffffff1681565b61070a611084565b600560149054906101000a900460ff1615600560146101000a81548160ff021916908315150217905550565b600960009054906101000a900473ffffffffffffffffffffffffffffffffffffffff1681565b6002600154036107a1576040517f08c379a000000000000000000000000000000000000000000000000000000000815260040161079890612308565b60405180910390fd5b6002600181905550600560149054906101000a900460ff166107f8576040517f08c379a00000000000000000000000000000000000000000000000000000000081526004016107ef90612374565b60405180910390fd5b84610802336114bf565b1015610843576040517f08c379a000000000000000000000000000000000000000000000000000000000815260040161083a906123e0565b60405180910390fd5b60008611801561086b575060016006600261085e9190612533565b610868919061257e565b86105b6108aa576040517f08c379a00000000000000000000000000000000000000000000000000000000081526004016108a1906125fe565b60405180910390fd5b60065485101580156108be57506007548511155b6108fd576040517f08c379a00000000000000000000000000000000000000000000000000000000081526004016108f490612690565b60405180910390fd5b61095433308787878787600360009054906101000a900473ffffffffffffffffffffffffffffffffffffffff1673ffffffffffffffffffffffffffffffffffffffff1661156490979695949392919063ffffffff16565b6000603f7e010410410410410410410410410410410410410410410410410410410410417920000000001000000000080000000004000000000200000000018961099e91906126b0565b166109a99190612739565b90506000600c80549050905060006109c18884611731565b9050610a3433600a60009054906101000a900473ffffffffffffffffffffffffffffffffffffffff168a600260009054906101000a900473ffffffffffffffffffffffffffffffffffffffff1673ffffffffffffffffffffffffffffffffffffffff166117b1909392919063ffffffff16565b600560009054906101000a900473ffffffffffffffffffffffffffffffffffffffff1673ffffffffffffffffffffffffffffffffffffffff166310fe7c48826040518263ffffffff1660e01b8152600401610a8f919061203f565b600060405180830381600087803b158015610aa957600080fd5b505af1158015610abd573d6000803e3d6000fd5b50505050600d6000600460009054906101000a900473ffffffffffffffffffffffffffffffffffffffff1673ffffffffffffffffffffffffffffffffffffffff1663485ba9f06040518163ffffffff1660e01b81526004016020604051808303816000875af1158015610b34573d6000803e3d6000fd5b505050506040513d601f19601f82011682018060405250810190610b58919061277f565b8152602001908152602001600020829080600181540180825580915050600190039060005260206000200160009091909190915055823373ffffffffffffffffffffffffffffffffffffffff16837fab2115bac1de808eb7fe2be0309085b11f1f42b1eb980de8352efefdbfc098e28b8d604051610bd79291906127ac565b60405180910390a4600c6040518061010001604052808560ff1681526020018b64ffffffffff168152602001600064ffffffffff1681526020014374ffffffffffffffffffffffffffffffffffffffffff1681526020018a6fffffffffffffffffffffffffffffffff16815260200160006fffffffffffffffffffffffffffffffff1681526020013373ffffffffffffffffffffffffffffffffffffffff16815260200160001515815250908060018154018082558091505060019003906000526020600020906003020160009091909190915060008201518160000160006101000a81548160ff021916908360ff16021790555060208201518160000160016101000a81548164ffffffffff021916908364ffffffffff16021790555060408201518160000160066101000a81548164ffffffffff021916908364ffffffffff160217905550606082015181600001600b6101000a81548174ffffffffffffffffffffffffffffffffffffffffff021916908374ffffffffffffffffffffffffffffffffffffffffff16021790555060808201518160010160006101000a8154816fffffffffffffffffffffffffffffffff02191690836fffffffffffffffffffffffffffffffff16021790555060a08201518160010160106101000a8154816fffffffffffffffffffffffffffffffff02191690836fffffffffffffffffffffffffffffffff16021790555060c08201518160020160006101000a81548173ffffffffffffffffffffffffffffffffffffffff021916908373ffffffffffffffffffffffffffffffffffffffff16021790555060e08201518160020160146101000a81548160ff021916908315150217905550505050505060018081905550505050505050565b610e68611084565b60001515600560149054906101000a900460ff16151514610ebe576040517f08c379a0000000000000000000000000000000000000000000000000000000008152600401610eb590612821565b60405180910390fd5b80600460006101000a81548173ffffffffffffffffffffffffffffffffffffffff021916908373ffffffffffffffffffffffffffffffffffffffff16021790555080600960006101000a81548173ffffffffffffffffffffffffffffffffffffffff021916908373ffffffffffffffffffffffffffffffffffffffff16021790555050565b600d6020528160005260406000208181548110610f5f57600080fd5b90600052602060002001600091509150505481565b60085481565b60075481565b610f88611084565b60001515600560149054906101000a900460ff16151514610fde576040517f08c379a0000000000000000000000000000000000000000000000000000000008152600401610fd590612821565b60405180910390fd5b8060088190555050565b600560149054906101000a900460ff1681565b611003611084565b600073ffffffffffffffffffffffffffffffffffffffff168173ffffffffffffffffffffffffffffffffffffffff1603611072576040517f08c379a0000000000000000000000000000000000000000000000000000000008152600401611069906128b3565b60405180910390fd5b61107b81611102565b50565b60065481565b61108c61183a565b73ffffffffffffffffffffffffffffffffffffffff166110aa6106b3565b73ffffffffffffffffffffffffffffffffffffffff1614611100576040517f08c379a00000000000000000000000000000000000000000000000000000000081526004016110f79061291f565b60405180910390fd5b565b60008060009054906101000a900473ffffffffffffffffffffffffffffffffffffffff169050816000806101000a81548173ffffffffffffffffffffffffffffffffffffffff021916908373ffffffffffffffffffffffffffffffffffffffff1602179055508173ffffffffffffffffffffffffffffffffffffffff168173ffffffffffffffffffffffffffffffffffffffff167f8be0079c531659141344cd1fd0a4f28419497f9722a3daafe3b4186f6b6457e060405160405180910390a35050565b60026001540361120b576040517f08c379a000000000000000000000000000000000000000000000000000000000815260040161120290612308565b60405180910390fd5b60026001819055506000600c838154811061122957611228612216565b5b9060005260206000209060030201905060008160010160009054906101000a90046fffffffffffffffffffffffffffffffff166fffffffffffffffffffffffffffffffff16905060008114806112945750600115158260020160149054906101000a900460ff161515145b156112a05750506114b4565b60008260020160009054906101000a900473ffffffffffffffffffffffffffffffffffffffff16905060008360000160019054906101000a900464ffffffffff1664ffffffffff16905060008460000160009054906101000a900460ff1660ff16905060006006876113129190612739565b905060006113208684611731565b9050600080858460026113339190612533565b1603611340576000611342565b815b905060018860020160146101000a81548160ff021916908315150217905550808860010160106101000a8154816fffffffffffffffffffffffffffffffff02191690836fffffffffffffffffffffffffffffffff160217905550828860000160066101000a81548164ffffffffff021916908364ffffffffff160217905550600560009054906101000a900473ffffffffffffffffffffffffffffffffffffffff1673ffffffffffffffffffffffffffffffffffffffff1663e43393938784600085116040518463ffffffff1660e01b81526004016114239392919061293f565b600060405180830381600087803b15801561143d57600080fd5b505af1158015611451573d6000803e3d6000fd5b50505050838673ffffffffffffffffffffffffffffffffffffffff168b7f23625847c1e986fe4d72725731bb8c052c5e3e26ca727151cf722e5e6e2ac9208a8988876040516114a39493929190612976565b60405180910390a450505050505050505b600180819055505050565b6000600260009054906101000a900473ffffffffffffffffffffffffffffffffffffffff1673ffffffffffffffffffffffffffffffffffffffff166370a08231836040518263ffffffff1660e01b815260040161151c9190611cd8565b602060405180830381865afa158015611539573d6000803e3d6000fd5b505050506040513d601f19601f8201168201806040525081019061155d919061277f565b9050919050565b60008873ffffffffffffffffffffffffffffffffffffffff16637ecebe00896040518263ffffffff1660e01b815260040161159f9190611cd8565b602060405180830381865afa1580156115bc573d6000803e3d6000fd5b505050506040513d601f19601f820116820180604052508101906115e0919061277f565b90508873ffffffffffffffffffffffffffffffffffffffff1663d505accf898989898989896040518863ffffffff1660e01b815260040161162797969594939291906129ca565b600060405180830381600087803b15801561164157600080fd5b505af1158015611655573d6000803e3d6000fd5b5050505060008973ffffffffffffffffffffffffffffffffffffffff16637ecebe008a6040518263ffffffff1660e01b81526004016116949190611cd8565b602060405180830381865afa1580156116b1573d6000803e3d6000fd5b505050506040513d601f19601f820116820180604052508101906116d5919061277f565b90506001826116e49190612a39565b8114611725576040517f08c379a000000000000000000000000000000000000000000000000000000000815260040161171c90612adf565b60405180910390fd5b50505050505050505050565b6000816000108015611744575060068211155b611783576040517f08c379a000000000000000000000000000000000000000000000000000000000815260040161177a90612b4b565b60405180910390fd5b600061178e84611842565b90508260068261179e91906126b0565b6117a89190612b6b565b91505092915050565b611834846323b872dd60e01b8585856040516024016117d293929190612b9c565b604051602081830303815290604052907bffffffffffffffffffffffffffffffffffffffffffffffffffffffff19166020820180517bffffffffffffffffffffffffffffffffffffffffffffffffffffffff8381831617835250505050611873565b50505050565b600033905090565b6000612710600854612710611857919061257e565b8361186291906126b0565b61186c9190612b6b565b9050919050565b60006118d5826040518060400160405280602081526020017f5361666545524332303a206c6f772d6c6576656c2063616c6c206661696c65648152508573ffffffffffffffffffffffffffffffffffffffff1661193a9092919063ffffffff16565b905060008151111561193557808060200190518101906118f59190612bff565b611934576040517f08c379a000000000000000000000000000000000000000000000000000000000815260040161192b90612c9e565b60405180910390fd5b5b505050565b60606119498484600085611952565b90509392505050565b606082471015611997576040517f08c379a000000000000000000000000000000000000000000000000000000000815260040161198e90612d30565b60405180910390fd5b6119a085611a66565b6119df576040517f08c379a00000000000000000000000000000000000000000000000000000000081526004016119d690612d9c565b60405180910390fd5b6000808673ffffffffffffffffffffffffffffffffffffffff168587604051611a089190612e2d565b60006040518083038185875af1925050503d8060008114611a45576040519150601f19603f3d011682016040523d82523d6000602084013e611a4a565b606091505b5091509150611a5a828286611a89565b92505050949350505050565b6000808273ffffffffffffffffffffffffffffffffffffffff163b119050919050565b60608315611a9957829050611ae9565b600083511115611aac5782518084602001fd5b816040517f08c379a0000000000000000000000000000000000000000000000000000000008152600401611ae09190612e88565b60405180910390fd5b9392505050565b6000604051905090565b600080fd5b600080fd5b6000819050919050565b611b1781611b04565b8114611b2257600080fd5b50565b600081359050611b3481611b0e565b92915050565b600060208284031215611b5057611b4f611afa565b5b6000611b5e84828501611b25565b91505092915050565b600060ff82169050919050565b611b7d81611b67565b82525050565b600064ffffffffff82169050919050565b611b9d81611b83565b82525050565b600074ffffffffffffffffffffffffffffffffffffffffff82169050919050565b611bcd81611ba3565b82525050565b60006fffffffffffffffffffffffffffffffff82169050919050565b611bf881611bd3565b82525050565b600073ffffffffffffffffffffffffffffffffffffffff82169050919050565b6000611c2982611bfe565b9050919050565b611c3981611c1e565b82525050565b60008115159050919050565b611c5481611c3f565b82525050565b600061010082019050611c70600083018b611b74565b611c7d602083018a611b94565b611c8a6040830189611b94565b611c976060830188611bc4565b611ca46080830187611bef565b611cb160a0830186611bef565b611cbe60c0830185611c30565b611ccb60e0830184611c4b565b9998505050505050505050565b6000602082019050611ced6000830184611c30565b92915050565b600080fd5b6000601f19601f8301169050919050565b7f4e487b7100000000000000000000000000000000000000000000000000000000600052604160045260246000fd5b611d4182611cf8565b810181811067ffffffffffffffff82111715611d6057611d5f611d09565b5b80604052505050565b6000611d73611af0565b9050611d7f8282611d38565b919050565b600067ffffffffffffffff821115611d9f57611d9e611d09565b5b602082029050602081019050919050565b600080fd5b6000611dc8611dc384611d84565b611d69565b90508083825260208201905060208402830185811115611deb57611dea611db0565b5b835b81811015611e145780611e008882611b25565b845260208401935050602081019050611ded565b5050509392505050565b600082601f830112611e3357611e32611cf3565b5b8135611e43848260208601611db5565b91505092915050565b60008060408385031215611e6357611e62611afa565b5b6000611e7185828601611b25565b925050602083013567ffffffffffffffff811115611e9257611e91611aff565b5b611e9e85828601611e1e565b9150509250929050565b611eb181611b67565b8114611ebc57600080fd5b50565b600081359050611ece81611ea8565b92915050565b6000819050919050565b611ee781611ed4565b8114611ef257600080fd5b50565b600081359050611f0481611ede565b92915050565b60008060008060008060c08789031215611f2757611f26611afa565b5b6000611f3589828a01611b25565b9650506020611f4689828a01611b25565b9550506040611f5789828a01611b25565b9450506060611f6889828a01611ebf565b9350506080611f7989828a01611ef5565b92505060a0611f8a89828a01611ef5565b9150509295509295509295565b611fa081611c1e565b8114611fab57600080fd5b50565b600081359050611fbd81611f97565b92915050565b600060208284031215611fd957611fd8611afa565b5b6000611fe784828501611fae565b91505092915050565b6000806040838503121561200757612006611afa565b5b600061201585828601611b25565b925050602061202685828601611b25565b9150509250929050565b61203981611b04565b82525050565b60006020820190506120546000830184612030565b92915050565b600060208201905061206f6000830184611c4b565b92915050565b600082825260208201905092915050565b7f4d696e20616d6f756e74206d757374206265206c657373207468616e206d617860008201527f20616d6f756e7400000000000000000000000000000000000000000000000000602082015250565b60006120e2602783612075565b91506120ed82612086565b604082019050919050565b60006020820190508181036000830152612111816120d5565b9050919050565b7f4d617820616d6f756e74206d7573742062652067726561746572207468616e2060008201527f6d696e20616d6f756e7400000000000000000000000000000000000000000000602082015250565b6000612174602a83612075565b915061217f82612118565b604082019050919050565b600060208201905081810360008301526121a381612167565b9050919050565b7f596f7520617265206e6f7420616c6c6f77656400000000000000000000000000600082015250565b60006121e0601383612075565b91506121eb826121aa565b602082019050919050565b6000602082019050818103600083015261220f816121d3565b9050919050565b7f4e487b7100000000000000000000000000000000000000000000000000000000600052603260045260246000fd5b7f4e487b7100000000000000000000000000000000000000000000000000000000600052601160045260246000fd5b600061227f82611b04565b91507fffffffffffffffffffffffffffffffffffffffffffffffffffffffffffffffff82036122b1576122b0612245565b5b600182019050919050565b7f5265656e7472616e637947756172643a207265656e7472616e742063616c6c00600082015250565b60006122f2601f83612075565b91506122fd826122bc565b602082019050919050565b60006020820190508181036000830152612321816122e5565b9050919050565b7f47616d65206973206e6f74206c69766500000000000000000000000000000000600082015250565b600061235e601083612075565b915061236982612328565b602082019050919050565b6000602082019050818103600083015261238d81612351565b9050919050565b7f706c61796572206e6f7420656e6f7567682042616c616e636500000000000000600082015250565b60006123ca601983612075565b91506123d582612394565b602082019050919050565b600060208201905081810360008301526123f9816123bd565b9050919050565b60008160011c9050919050565b6000808291508390505b60018511156124575780860481111561243357612432612245565b5b60018516156124425780820291505b808102905061245085612400565b9450612417565b94509492505050565b600082612470576001905061252c565b8161247e576000905061252c565b8160018114612494576002811461249e576124cd565b600191505061252c565b60ff8411156124b0576124af612245565b5b8360020a9150848211156124c7576124c6612245565b5b5061252c565b5060208310610133831016604e8410600b84101617156125025782820a9050838111156124fd576124fc612245565b5b61252c565b61250f848484600161240d565b9250905081840481111561252657612525612245565b5b81810290505b9392505050565b600061253e82611b04565b915061254983611b04565b92506125767fffffffffffffffffffffffffffffffffffffffffffffffffffffffffffffffff8484612460565b905092915050565b600061258982611b04565b915061259483611b04565b92508282039050818111156125ac576125ab612245565b5b92915050565b7f426574206d61736b206e6f7420696e2072616e67650000000000000000000000600082015250565b60006125e8601583612075565b91506125f3826125b2565b602082019050919050565b60006020820190508181036000830152612617816125db565b9050919050565b7f42657420616d6f756e742073686f756c642062652077697468696e2072616e6760008201527f652e000000000000000000000000000000000000000000000000000000000000602082015250565b600061267a602283612075565b91506126858261261e565b604082019050919050565b600060208201905081810360008301526126a98161266d565b9050919050565b60006126bb82611b04565b91506126c683611b04565b9250817fffffffffffffffffffffffffffffffffffffffffffffffffffffffffffffffff04831182151516156126ff576126fe612245565b5b828202905092915050565b7f4e487b7100000000000000000000000000000000000000000000000000000000600052601260045260246000fd5b600061274482611b04565b915061274f83611b04565b92508261275f5761275e61270a565b5b828206905092915050565b60008151905061277981611b0e565b92915050565b60006020828403121561279557612794611afa565b5b60006127a38482850161276a565b91505092915050565b60006040820190506127c16000830185612030565b6127ce6020830184612030565b9392505050565b7f4265747320696e2070656e64696e670000000000000000000000000000000000600082015250565b600061280b600f83612075565b9150612816826127d5565b602082019050919050565b6000602082019050818103600083015261283a816127fe565b9050919050565b7f4f776e61626c653a206e6577206f776e657220697320746865207a65726f206160008201527f6464726573730000000000000000000000000000000000000000000000000000602082015250565b600061289d602683612075565b91506128a882612841565b604082019050919050565b600060208201905081810360008301526128cc81612890565b9050919050565b7f4f776e61626c653a2063616c6c6572206973206e6f7420746865206f776e6572600082015250565b6000612909602083612075565b9150612914826128d3565b602082019050919050565b60006020820190508181036000830152612938816128fc565b9050919050565b60006060820190506129546000830186611c30565b6129616020830185612030565b61296e6040830184611c4b565b949350505050565b600060808201905061298b6000830187612030565b6129986020830186612030565b6129a56040830185612030565b6129b26060830184612030565b95945050505050565b6129c481611ed4565b82525050565b600060e0820190506129df600083018a611c30565b6129ec6020830189611c30565b6129f96040830188612030565b612a066060830187612030565b612a136080830186611b74565b612a2060a08301856129bb565b612a2d60c08301846129bb565b98975050505050505050565b6000612a4482611b04565b9150612a4f83611b04565b9250828201905080821115612a6757612a66612245565b5b92915050565b7f5361666545524332303a207065726d697420646964206e6f742073756363656560008201527f6400000000000000000000000000000000000000000000000000000000000000602082015250565b6000612ac9602183612075565b9150612ad482612a6d565b604082019050919050565b60006020820190508181036000830152612af881612abc565b9050919050565b7f57696e2070726f626162696c697479206f7574206f662072616e676500000000600082015250565b6000612b35601c83612075565b9150612b4082612aff565b602082019050919050565b60006020820190508181036000830152612b6481612b28565b9050919050565b6000612b7682611b04565b9150612b8183611b04565b925082612b9157612b9061270a565b5b828204905092915050565b6000606082019050612bb16000830186611c30565b612bbe6020830185611c30565b612bcb6040830184612030565b949350505050565b612bdc81611c3f565b8114612be757600080fd5b50565b600081519050612bf981612bd3565b92915050565b600060208284031215612c1557612c14611afa565b5b6000612c2384828501612bea565b91505092915050565b7f5361666545524332303a204552433230206f7065726174696f6e20646964206e60008201527f6f74207375636365656400000000000000000000000000000000000000000000602082015250565b6000612c88602a83612075565b9150612c9382612c2c565b604082019050919050565b60006020820190508181036000830152612cb781612c7b565b9050919050565b7f416464726573733a20696e73756666696369656e742062616c616e636520666f60008201527f722063616c6c0000000000000000000000000000000000000000000000000000602082015250565b6000612d1a602683612075565b9150612d2582612cbe565b604082019050919050565b60006020820190508181036000830152612d4981612d0d565b9050919050565b7f416464726573733a2063616c6c20746f206e6f6e2d636f6e7472616374000000600082015250565b6000612d86601d83612075565b9150612d9182612d50565b602082019050919050565b60006020820190508181036000830152612db581612d79565b9050919050565b600081519050919050565b600081905092915050565b60005b83811015612df0578082015181840152602081019050612dd5565b60008484015250505050565b6000612e0782612dbc565b612e118185612dc7565b9350612e21818560208601612dd2565b80840191505092915050565b6000612e398284612dfc565b915081905092915050565b600081519050919050565b6000612e5a82612e44565b612e648185612075565b9350612e74818560208601612dd2565b612e7d81611cf8565b840191505092915050565b60006020820190508181036000830152612ea28184612e4f565b90509291505056fea26469706673582212203782775d2eabbfd4f497a9cc77bd13b8afe7c4d29218e9bbe632258e9897ddc264736f6c63430008100033",
  "immutableReferences": {},
  "source": "// SPDX-License-Identifier: MIT\npragma solidity ^0.8.13;\nimport \"@openzeppelin/contracts/access/Ownable.sol\";\nimport \"@openzeppelin/contracts/token/ERC20/utils/SafeERC20.sol\";\nimport \"@openzeppelin/contracts/security/ReentrancyGuard.sol\";\n\n// import \"@openzeppelin/contracts/token/ERC20/IERC20.sol\";\n// import \"@openzeppelin/contracts/token/ERC20/extensions/draft-IERC20Permit.sol\";\n\n\nimport \"./interface/IVRFCenter.sol\";\nimport \"./interface/IGame.sol\";\nimport \"./interface/IVault.sol\";\n\ncontract Dice is Ownable, ReentrancyGuard, IGame{\n    using SafeERC20 for IERC20; // ??\n    using SafeERC20 for IERC20Permit; // ??\n\n    IERC20 NeonToken;\n    IERC20Permit NeonTokenP;\n    IVRFCenter VRFCenter;\n    IVault Vault;\n\n    constructor(address _tokenAddress,address _vaultAddress) {\n        NeonToken = IERC20(_tokenAddress);\n        NeonTokenP = IERC20Permit(_tokenAddress);\n        tokenAddress = _tokenAddress;\n        Vault = IVault(_vaultAddress);\n        vaultAddress =_vaultAddress;\n\n    }\n\n    // Variables\n    bool public gameIsLive = true;\n    uint public minBetAmount = 1 ether;\n    uint public maxBetAmount = 500 ether;\n\n    // Each bet is deducted 2.2% in favor of the house\n    uint public HOUSE_EDGE_PERCENT = 220;\n\n    address public VRFCenterAddress;\n    address public vaultAddress;\n    address public tokenAddress;\n\n    // Modulo is the number of equiprobable outcomes in a game:\n    //  6 for dice roll\n    uint constant MODULO = 6;\n\n    // These are constants taht make O(1) population count in placeBet possible.\n    uint constant POPCNT_MULT = 0x0000000000002000000000100000000008000000000400000000020000000001;\n    uint constant POPCNT_MASK = 0x0001041041041041041041041041041041041041041041041041041041041041;\n    uint constant POPCNT_MODULO = 0x3F;\n\n\n    struct Bet {\n        uint8 rollUnder;\n        uint40 choice;\n        uint40 outcome;\n        uint168 placeBlockNumber;\n        uint128 amount;\n        uint128 winAmount;\n        address player;\n        bool isSettled;\n    }\n\n    Bet[] public bets;\n    mapping(uint256 => uint[]) public betMap;\n    \n    // modifier\n    modifier isVRFCenter {\n        require(VRFCenterAddress == msg.sender, \"You are not allowed\");\n        _;\n    }\n\n    // Events\n    event BetPlaced(uint indexed betId, address indexed player, uint amount, uint indexed rollUnder, uint choice);\n\n    event BetSettled(uint indexed betId, address indexed player, uint amount, uint indexed rollUnder, uint choice, uint outcome, uint winAmount);\n\n    event BetRefunded(uint indexed betId, address indexed player, uint amount);\n\n\n    // Methods\n    function initializeVRFCenter(address _address) external onlyOwner {\n        require(gameIsLive == false, \"Bets in pending\");\n        VRFCenter = IVRFCenter(_address);\n        VRFCenterAddress = _address;\n    }\n\n    // setter\n    // stop/start Game\n    function toggleGameIsLive() external onlyOwner {\n        gameIsLive = !gameIsLive;\n    }\n    // set minBetAmount\n    function setMinBetAmount(uint _minBetAmount) external onlyOwner {\n        require(_minBetAmount < maxBetAmount, \"Min amount must be less than max amount\");\n        minBetAmount = _minBetAmount;\n    }\n    // set maxBetAmount\n    function setMaxBetAmount(uint _maxBetAmount) external onlyOwner {\n        require(_maxBetAmount > minBetAmount, \"Max amount must be greater than min amount\");\n        maxBetAmount = _maxBetAmount;\n    }\n    // set HOUSE_EDGE_PERCENT\n    function setHouseEdgePercent(uint _HOUSE_EDGE_PERCENT) external onlyOwner {\n        require(gameIsLive == false, \"Bets in pending\");\n        HOUSE_EDGE_PERCENT = _HOUSE_EDGE_PERCENT;\n    }\n\n    // Converters\n    // House Edge Calculated Price\n    function getAmountAfterEdge(uint amount) internal view returns(uint) {\n        return amount * (10000 - HOUSE_EDGE_PERCENT) / 10000;\n    }\n\n    // getter\n    // Amount a player can earn if he wins\n    function getWinAmount(uint _amount, uint rollUnder) internal view returns (uint) {\n        require(0 < rollUnder && rollUnder <= MODULO, \"Win probability out of range\");\n        uint bettableAmount = getAmountAfterEdge(_amount);\n        return bettableAmount * MODULO / rollUnder;\n    }\n\n    // get Player`s Neon Token\n    function getBalanceOf(address _address) internal view returns(uint) {\n        return NeonToken.balanceOf(_address);\n    }\n\n    \n    // :) EIP-712 sign permit for transfer Token\n    function placeBet(uint betChoiceMask,uint amount, uint deadline, uint8 v, bytes32 r, bytes32 s) external nonReentrant {\n        require(gameIsLive, \"Game is not live\");\n        require(getBalanceOf(msg.sender) >= amount,\"player not enough Balance\");\n        require(betChoiceMask > 0 && betChoiceMask < 2 ** MODULO - 1, \"Bet mask not in range\");\n        require (amount >= minBetAmount && amount <= maxBetAmount, \"Bet amount should be within range.\");\n\n        // approve send player`s token\n        NeonTokenP.safePermit(msg.sender, address(this), amount, deadline, v, r, s);\n        \n        uint rollUnder = ((betChoiceMask * POPCNT_MULT) & POPCNT_MASK) % POPCNT_MODULO;\n\n        uint betId = bets.length;\n        uint winnableAmount = getWinAmount(amount, rollUnder);\n\n        // transfor player`s token to VAULT\n        NeonToken.safeTransferFrom(msg.sender, vaultAddress, amount);\n        // Lock Player`s winnings in the VAULT.\n        Vault.placeBet(winnableAmount);\n        \n        //request random number\n        betMap[VRFCenter.sendRequestRandomness()].push(betId);\n\n        emit BetPlaced(betId, msg.sender, amount, rollUnder, betChoiceMask);  \n        bets.push(Bet({\n            rollUnder: uint8(rollUnder),\n            choice: uint40(betChoiceMask),\n            outcome: 0,\n            placeBlockNumber: uint168(block.number),\n            amount: uint128(amount),\n            winAmount: 0,\n            player: msg.sender,\n            isSettled: false\n        }));\n    }\n\n    function settleBet(uint256 requestId, uint256[] memory expandedValues) external isVRFCenter {\n        uint[] memory pendingBetIds = betMap[requestId];\n        uint i;\n        for (i = 0; i < pendingBetIds.length; i++) {\n            // The VRFManager is optimized to prevent this from happening, this check is just to make sure that if it happens the tx will not be reverted, if this result is true the bet will be refunded manually later\n            if (gasleft() <= 80000) {\n                return;\n            }\n            // The pendingbets are always <= than the expandedValues\n            _settleBet(pendingBetIds[i], expandedValues[i]);\n        }\n    }\n\n    function _settleBet(uint betId, uint256 randomNumber) private nonReentrant {\n        Bet storage bet = bets[betId];\n\n        uint amount = bet.amount;\n        if (amount == 0 || bet.isSettled == true) {\n            return;\n        }\n\n        address player = bet.player;\n        uint choice = bet.choice;\n        uint rollUnder = bet.rollUnder;\n\n        // VRF final result\n        uint outcome = (randomNumber % MODULO);\n\n        // +1 => The random number starts from 0. Dice's selection count starts at 1, so 1 is added.\n        // uint outcome = _outcome + 1;\n\n        uint winnableAmount = getWinAmount(amount, rollUnder);\n        uint winAmount = (2 ** outcome) & choice != 0 ? winnableAmount : 0;\n\n        bet.isSettled = true;\n        bet.winAmount = uint128(winAmount);\n        bet.outcome = uint40(outcome);\n\n        Vault.settleBet(player, winnableAmount, winAmount > 0);\n        emit BetSettled(betId, player, amount, rollUnder, choice, outcome, winAmount);\n    }\n}",
  "sourcePath": "/Users/choiwonhyeok/Documents/neon/back/contracts/Dice.sol",
  "compiler": {
    "name": "solc",
    "version": "0.8.16+commit.07a7930e.Emscripten.clang"
  },
  "schemaVersion": "3.4.8",
  "updatedAt": "2022-08-14T14:08:29.080Z",
  "networkType": "ethereum",
  "devdoc": {
    "kind": "dev",
    "methods": {
      "owner()": {
        "details": "Returns the address of the current owner."
      },
      "renounceOwnership()": {
        "details": "Leaves the contract without owner. It will not be possible to call `onlyOwner` functions anymore. Can only be called by the current owner. NOTE: Renouncing ownership will leave the contract without an owner, thereby removing any functionality that is only available to the owner."
      },
      "transferOwnership(address)": {
        "details": "Transfers ownership of the contract to a new account (`newOwner`). Can only be called by the current owner."
      }
    },
    "version": 1
  },
  "userdoc": {
    "kind": "user",
    "methods": {},
    "version": 1
  }
}